:020000040800F2
:1000000040050020C1010008A91E0008191D0008B4
:10001000A51E000875030008E12600080000000086
:10002000000000000000000000000000DD230008C8
:100030009109000800000000AD1E0008E12300083F
:10004000DB010008DB010008DB010008DB01000820
:10005000DB010008DB010008DB010008DB01000810
:10006000DB010008DB010008DB010008DB01000800
:10007000DB010008DB010008DB010008DB010008F0
:10008000DB010008DB010008DB010008DB010008E0
:10009000DB010008DB010008DB010008DB010008D0
:1000A000DB010008A9240008DB010008DB010008CF
:1000B000DB010008DB010008DB010008DB010008B0
:1000C000DB010008DB010008DB010008DB010008A0
:1000D000DB010008DB010008DB010008DB01000890
:1000E000DB010008DB010008DB010008DB01000880
:1000F000DB010008DB010008DB010008DB01000870
:10010000DB010008DB010008DB010008DB0100085F
:10011000DB010008DB010008DB010008DB0100084F
:10012000DB010008DB010008DB010008DB0100083F
:10013000DB010008DB010008DB010008DB0100082F
:10014000DB010008DB010008DB010008DB0100081F
:10015000DB010008DB010008DB010008DB0100080F
:10016000DB010008DB010008DB010008DB010008FF
:10017000DB010008DB010008DB01000800000000D3
:10018000DB010008DB010008DB010008DB010008DF
:10019000DB010008DB010008DB010008DB010008CF
:1001A000DB010008DB010008DB010008DFF80CD0F0
:1001B00000F068F8004800476D2D00084005002059
:1001C0000648804706480047FEE7FEE7FEE7FEE7F1
:1001D000FEE7FEE7FEE7FEE7FEE7FEE79524000800
:1001E000AD0100082DE9F05F0546002092469B46D0
:1001F00088460646814640241BE02846414647463D
:10020000224600F02FF853465A46C01A914110D3A7
:1002100011461846224600F016F82D1A67EB010821
:100220004F4622460120002100F00DF817EB00098F
:100230004E41201EA4F10104DFDC484631462A4627
:100240004346BDE8F09F202A04DB203A00FA02F181
:10025000002070479140C2F1200320FA03F31943B4
:1002600090407047202A04DB203A21FA02F0002156
:10027000704721FA02F3D040C2F1200291400843B6
:1002800019467047064C074D06E0E06840F0010350
:1002900094E8070098471034AC42F6D3FFF78AFF82
:1002A00080320008A0320008B0B540F20044C4F229
:1002B000020443F6080520464FF480710022C4F280
:1002C000000500F055FC2868800709D428688007DD
:1002D0005CBF28685FEA807002D428688007F2D586
:1002E000A82068602868C00709D12868C00704BF33
:1002F00028685FEAC07002D12868C007F2D0686839
:100300002868800709D4286880075CBF28685FEAEE
:10031000807002D428688007F2D5002068602868C1
:10032000C00709D12868C00704BF28685FEAC07009
:1003300002D12868C007F2D06D6820464FF4807162
:10034000012200F015FCA80704D007A0BDE8B040CA
:1003500002F070BF1420032102F04AFD02A0BDE8A4
:10036000B04002F067BF00BF616E74656E6E6120C1
:100370006F6E0900FEE700002DE9F04F83B01746CD
:1003800005460C280C46029306D00E2D0AD14FF0DC
:10039000110A4FF0120809E04FF0310A4FF07708C8
:1003A00004E000BF4FF0010A4FF0000840F2004B9C
:1003B000C4F2020B43F6080658464FF4807100223F
:1003C000C4F2000600F0D4FB3068800709D430681E
:1003D00080075CBF30685FEA807002D430688007B5
:1003E000F2D5042070603068C00709D13068C007BA
:1003F00004BF30685FEAC07002D13068C007F2D035
:1004000070683068800709D4306880075CBF306846
:100410005FEA807002D430688007F2D508F180006E
:1004200070603068C00709D13068C00704BF306809
:100430005FEAC07002D13068C007F2D070685846D9
:100440004FF48071012200F093FB0420802102F020
:100450005BFB0A20802102F0CBFC58464FF48071F0
:10046000002200F085FB3068800709D430688007DF
:100470005CBF30685FEA807002D430688007F2D5D4
:10048000022070603068C00709D13068C00704BF1F
:1004900030685FEAC07002D13068C007F2D00195C1
:1004A00070683068800709D4306880075CBF3068A6
:1004B0005FEA807002D430688007F2D50020CDF862
:1004C000008070603068C00709D13068C00704BF81
:1004D00030685FEAC07002D13068C007F2D070683F
:1004E00058464FF48071012200F042FB002F4FD09C
:1004F0004FF0000812250AE0706858464FF48071EA
:10050000012200F035FB08F10108B84540D014F88D
:10051000089058464FF48071002200F029FB3068A3
:10052000800709D4306880075CBF30685FEA80705C
:1005300002D430688007F2D575603068C00709D1F1
:100540003068C00704BF30685FEAC07002D130680D
:10055000C007F2D070683068800709D4306880071F
:100560005CBF30685FEA807002D430688007F2D5E3
:10057000C6F804903068C007BED13068C00704BF19
:1005800030685FEAC070B7D13068C007F2D0B3E717
:1005900058464FF48071002200F0EAFA3068800774
:1005A00009D4306880075CBF30685FEA807002D48D
:1005B00030688007F2D502207060DDF80490306862
:1005C000C00709D13068C00704BF30685FEAC07057
:1005D00002D13068C007F2D070683068800709D453
:1005E000306880075CBF30685FEA807002D4306892
:1005F0008007F2D5C6F804903068C00709D130688A
:10060000C00704BF30685FEAC07002D13068C0071D
:10061000F2D0706858464FF48071012200F0A8FAB9
:10062000B9F10C0F03D10D20802102F0E1FB48F25B
:100630008047C0F21E074FF00008882558464FF447
:100640008071002200F094FA306880070AD4306884
:1006500080075CBF30685FEA807003D43068800731
:10066000F2D500BF75603068C00709D13068C00797
:1006700004BF30685FEAC07002D13068C007F2D0B2
:1006800070683068800709D4306880075CBF3068C4
:100690005FEA807002D430688007F2D5C6F8048023
:1006A0003068C0070AD13068C00704BF30685FEA0D
:1006B000C07003D13068C007F2D000BF74685846DC
:1006C0004FF48071012200F053FA013F56D01AEA2C
:1006D000040FB3D00420802102F016FA58464FF4DC
:1006E0008071002200F044FA3068800709D4306835
:1006F00080075CBF30685FEA807002D43068800792
:10070000F2D58C2070603068C00709D13068C0070E
:1007100004BF30685FEAC07002D13068C007F2D011
:1007200070683068800709D4306880075CBF306823
:100730005FEA807002D430688007F2D500207060D4
:100740003068C00709D13068C00704BF30685FEA6D
:10075000C07002D13068C007F2D0756858464FF4B7
:100760008071012200F004FA15F01B0F10D04FF039
:100770000208404603B0BDE8F08F00BF042080218E
:1007800002F0C2F94FF00208404603B0BDE8F08F16
:100790000098B9F10C0F00EA040000F00108E8D15C
:1007A00058464FF48071002200F0E2F9306880076B
:1007B00009D4306880075CBF30685FEA807002D47B
:1007C00030688007F2D5942070603068C00709D186
:1007D0003068C00704BF30685FEAC07002D130687B
:1007E000C007F2D070683068800709D4306880078D
:1007F0005CBF30685FEA807002D430688007F2D551
:10080000002070603068C00709D13068C00704BF9D
:1008100030685FEAC07002D13068C007F2D07768F4
:1008200058464FF48071012200F0A2F958464FF467
:100830008071002200F09CF93068800709D430688C
:1008400080075CBF30685FEA807002D43068800740
:10085000F2D5982070603068C00709D13068C007B1
:1008600004BF30685FEAC07002D13068C007F2D0C0
:1008700070683068800709D4306880075CBF3068D2
:100880005FEA807002D430688007F2D50020706083
:100890003068C00709D13068C00704BF30685FEA1C
:1008A000C07002D13068C007F2D0746858464FF467
:1008B00080710122FDB200F05BF94FF4FF6114F08A
:1008C000070001EAC701084418BFA0F10801102D74
:1008D0002F4628BF1027002D0C9808BF0127002F96
:1008E00001603FF446AF4FF000094FF0920A002537
:1008F0000DE000BF746858464FF48071012200F08B
:1009000037F9029844550135BD423FF432AF58469D
:100910004FF48071002200F02BF93068800709D471
:10092000306880075CBF30685FEA807002D430684E
:100930008007F2D5C6F804A03068C0070AD1306835
:10094000C00704BF30685FEAC07003D13068C007D9
:10095000F2D000BF70683068800709D43068800723
:100960005CBF30685FEA807002D430688007F2D5DF
:10097000C6F804903068C007BCD13068C00704BF17
:1009800030685FEAC070B5D13068C007F2D0B1E717
:1009900070470000EFF3108072B600BFFEE7000062
:1009A000B0B5044600F0EAF8054640F20400C2F291
:1009B00000000078611C18BF044400BF00F0DEF89E
:1009C000401BA042FAD3B0BD2DE9F04F82B000F138
:1009D0003E4242F2004502F1FF77C4F202050A22CC
:1009E00043F6004E4FEAB726A84208BF0922C4F2D8
:1009F000010E092E38BF4FEAB72201250026002735
:100A00004FF00008009208E008F101080437B8F13F
:100A1000100F06F1020600F0A7800C6805FA08F92D
:100A200014EA090FF0D0D1F804B003220BF0030C44
:100A3000ACF10104B240012C6FEA020A10D88268BE
:100A4000CC6802EA0A02B440224382604268CBF3D7
:100A5000001422EA090204FA08F42243426005E085
:100A6000BCF1030F02D14FF0030C20E0C2688C6888
:100A700002EA0A02B4402243BCF1020FC26016D15E
:100A80006FF0030202EA58020244D2F820C007F0D5
:100A90001C050F230C69AB402CEA030304FA05F58F
:100AA0002B431362D1F804B001250BF0030C02684C
:100AB0000CFA06F302EA0A021A431BF4403F0260F2
:100AC000A2D0002243F644030192C4F202031A6842
:100AD0004FF6084C42F480421A601A68CFF6FF7C49
:100AE00002F480420192019A28F00302724452F803
:100AF0000C3007F00C050F24AC40A343009C04FA13
:100B000005F52B4342F80C30DEF808204B6842EA2A
:100B1000090543F60C4CDC0258BF22EA0905CEF861
:100B20000850C4F2010CDCF800209C0242EA0905DE
:100B300058BF22EA0905CCF80050DEF804209C03D7
:100B400042EA090558BF22EA0905CEF80450DEF84A
:100B50000020DB0342EA090558BF22EA0905CEF866
:100B60000050012550E700BF02B0BDE8F08F000043
:100B7000002A08BF090481617047000040F23C1060
:100B8000C2F200000068704740F2040040F23C11DD
:100B9000C2F20000C2F2000100780A681044086046
:100BA0007047000080B543F60040C4F202000168BF
:100BB00041F400710160016841F4806101600168E5
:100BC00041F480710160032000F0BEF80F2000F0B6
:100BD00005F800F05DF8002080BD0000B0B586B0DB
:100BE000002543F644010195C4F202010A68044657
:100BF00042F001020A60096801A801F001010191B7
:100C00000199694600F060F900F092F94DF68361B0
:100C10004000C4F21B31A0FB01014FF0FF3000EB9C
:100C2000914140F268000022C2F20000C4F20102C9
:100C300040F2E733C0E90021C0E902530561856154
:100C400000F0B0FD054618B1284606B0B0BD00BFA3
:100C500040F26800C2F2000000F0ECFD05460028FA
:100C6000F2D1192000F030F80F2C0DD819202146B0
:100C70000022002500F03CF840F20800C2F200001B
:100C80000460284606B0B0BD0125284606B0B0BDB8
:100C900082B0002043F640010190C4F202014A688C
:100CA00042F480424A604A6802F480420192019A0A
:100CB0000090086840F080500860086800F080509C
:100CC0000090009802B07047002848BF7047C1B23A
:100CD00000F01F00012202FA00F04EF20012CEF2E4
:100CE000000242EAD10121F00301086070470000D0
:100CF00010B54EF60C5CCEF2000CDCF80030C3F3FD
:100D0000022E8EF00704042C28BF0424BEF1030336
:100D10004FF0FF3E0EFA04F438BF0023A143994080
:100D20000EFA03F39A43114300F00F0200F16043FF
:100D30000901043A03F564436244002848BF02F104
:100D40000C03197010BD00004EF60C51CEF20001DC
:100D50000A684FF6FF031A4060F30A2242F08060EF
:100D600040F0FD70086070472DE9F041002800F068
:100D70008B8043F60808C4F202080446D8F8F8034A
:100D80000D4600F00F00884207D288F8F853D8F8D3
:100D9000F80300F00F00A84276D12068810717D52C
:100DA000410705D5D8F8001041F4E051C8F800100B
:100DB000010705D5D8F8001041F46041C8F80010CB
:100DC000D8F80010A26821F0F0011143C8F8001013
:100DD000C0073FD1D8F8F80300F00F00A84207D9A8
:100DE00088F8F853D8F8F80300F00F00A8424BD168
:100DF0002068410707D5D8F80010E26821F4E051D7
:100E00001143C8F80010000708D5D8F80000216980
:100E100020F4604040EAC100C8F8000000F09CF8EF
:100E2000D8F8001043F25822C1F30311C0F60002B3
:100E3000515C40F20C0220FA01F140F20800C2F2CB
:100E400000000068C2F200021160FFF7C7FE002038
:100E5000BDE8F0816068811E022907D258F8081C9D
:100E600089015CBF0120BDE8F08111E0012807D1B4
:100E700058F8081C89035CBF0120BDE8F08107E039
:100E800058F8081C890703D40120BDE8F08100BF91
:100E9000D8F8001021F003010843C8F80000FFF75C
:100EA0006DFE064641F28837D8F80000616800F010
:100EB0000C00B0EB810F8DD0FFF760FE801BB842B5
:100EC000F2D90320BDE8F0810F22026043F6080248
:100ED000C4F20202136803F003034360136803F0D3
:100EE000F0038360136803F4E053C360D2F800C0DA
:100EF0004FF4E05303EADC030361D2F8F80300F097
:100F00000F0008607047000040F20C0043F6080133
:100F1000C2F20000C4F202010068096843F26822CC
:100F2000C1F38221C0F60002515CC8407047000046
:100F300040F20C0043F60801C2F20000C4F20201C4
:100F40000068096843F26822C1F34231C0F600022A
:100F5000515CC8407047000010B543F60404C4F269
:100F60000204606800F00C0142F200400829C0F25F
:100F7000F40007D0042918BF10BD41F20020C0F2D0
:100F80007A0010BD216801F03F0221682368490200
:100F9000C3F3881106D4A1FB00010023FFF722F957
:100FA00007E000BF41F20020C0F27A004843B0FBE6
:100FB000F2F021680222C1F3014102EB4101B0FBD2
:100FC000F1F010BD2DE9F04182B0002868D0044650
:100FD000007843F60006C007C4F202060BD0B068E2
:100FE00000F00C00042840F09F803068800302D598
:100FF0006068002854D0207880071AD5B06810F0B7
:101000000C0F09D0B06800F00C00082840F0A68052
:101010007068400200F1A2803068800702D5E06865
:1010200001283DD13068216920F0F80040EAC10074
:1010300030602078000737D4207840074CD4A56969
:1010400055B3B06800F00C00082840F0BB80012DBB
:1010500026D07068E16900F480028A4220D1216ABA
:1010600000F03F028A421BD147F6C071626A01401C
:10107000B1EB821F14D1A16A4FF6FF73C9039943E4
:1010800000F44032A1F580318A4209D1E16A00F0D2
:101090007060B0EB016F03D1002002B0BDE8F081B9
:1010A000012002B0BDE8F0816069002840F2000034
:1010B000C4F2472076D00121C0F8801EFFF75EFD04
:1010C000054600BF706F8007B6D4FFF757FD401B81
:1010D0000228F7D9DDE000BF306C10F080580AD14B
:1010E00000200190306C40F080503064306C00F093
:1010F00080500190019847F20007C4F20007386859
:10110000C00541D4386840F480703860FFF736FD80
:10111000054600BF3868C00536D4FFF72FFD401BD9
:101120000228F7D9B5E000BFB06800F00C0008282D
:1011300003D1706840023FF558AF6068B0F5803F5A
:1011400007D0B0F5A02F40F08D80306840F48020AB
:101150003060306840F4803030608DE0E068002816
:1011600052D00020C4F2472001210160FFF706FDA4
:10117000054600BF306880073FF554AFFFF7FEFC1F
:10118000401B0228F6D984E0A068012805D0052874
:101190004ED1306F40F004003067306F40F00100F6
:1011A00030674FE00021C0F8801EFFF7E7FC0546DE
:1011B000706F80077FF540AFFFF7E0FC401B02280F
:1011C000F6D966E00027C4F2472700203866FFF70B
:1011D000D5FC022D05460BD1306880015ED5FFF7A6
:1011E000CDFC401B02284FF00300F5D955E700BFA6
:1011F000306880017FF550AFFFF7C0FC401B02282C
:101200004FF00300F4D948E70020C4F24720002142
:101210000160FFF7B3FC0546306880077FF509AF32
:10122000FFF7ACFC401B02284FF00300F4D934E771
:10123000316F002821F001013167316F21F0040185
:1012400031674DD0FFF79AFC054641F2883700BF61
:10125000306F800756D4FFF791FC401BB842F7D996
:1012600017E000BF3168002821F480313160316817
:1012700021F4802131604FD0FFF780FC054600BF8C
:10128000306880033FF5B7AEFFF778FC401B642859
:10129000F6D9032002B0BDE8F08100BF04F11C05BF
:1012A0002FCD084340EA8210D9034FF6FF729143D5
:1012B000A1F5803140EA056008437060012038667E
:1012C000FFF75CFC044600BF306880013FF5E4AEE8
:1012D000FFF754FC001B02284FF00300F4D9DCE6B2
:1012E000FFF74CFC054641F2883700BF306F80079E
:1012F00008D5FFF743FC401BB8424FF00300F5D977
:10130000CBE600BFB8F1000F7FF499AE306C20F04F
:101310008050306493E600BFFFF730FC054600BF05
:10132000306880037FF567AEFFF728FC401B642818
:101330004FF00300F4D9B0E670B538B10446406A06
:1013400030B10020206104F1140007E0012070BDDD
:101350006068B0F5827F03D004F11C0000210160B9
:101360000026A66294F8510020B9204684F8506007
:1013700000F03CF8022084F8510094E80F0001F4DA
:101380008271056802F4044225F0400505601144AD
:1013900003F400622369114403F0020263691144FB
:1013A00003F00102A369E569114403F400721144DA
:1013B00005F03802256A114405F08002A56A114340
:1013C00005F4005211430160626A042101EA1341ED
:1013D00002F0100211444160C16921F40061C16151
:1013E0000120666584F85100304670BD2DE9F04358
:1013F00085B0006843F60005C4F20005A84203D09A
:1014000005B0BDE8F08300BF002643F6300000962B
:10141000C4F2020001696C4641F480410161016936
:101420004FF0020801F48041009100990096016894
:101430004FF0030941F0040101600168052701F044
:101440000401009100990096016841F008010160D3
:101450000068214600F00800009000980C200090E1
:1014600005F5E830CDE90186CDF80C900497FFF73B
:10147000ABFA0820CDE9000805F5EA302146CDE9B0
:1014800002690497FFF7A0FA05B0BDE8F0830000F9
:101490002DE9F04383B0044690F85000012803D1B1
:1014A000022003B0BDE8F0834FF001091D46164647
:1014B0000F4684F85090FFF761FB94F85110012912
:1014C00044D18046002F4FF0010018BF002E00F0DD
:1014D000D6800320002184F8510061652763A68629
:1014E000E686A163A187E187A0682164B0F5004F7B
:1014F0002068616407D1016821F040010160016842
:1015000041F4804101600168490603D4016841F05B
:10151000400101606168731EE268B1FA81F1B3FABB
:1015200083F349095B09B2F5006F41EA03013DD13C
:1015300031B137F8021BC1602763E08E0138E086C5
:10154000E08E00286CD0681C0DD11EE0022096E0D1
:10155000216B31F8022BC2602163E08E0138E086F6
:10156000E08E00285CD0206881688907F0D4FFF7FE
:1015700005FBA0EB0800A842F2D303207FE000BFE8
:10158000FFF7FCFAE08E00284AD0206881688907BE
:10159000F6D5216B31F8022BC2602163E08E013851
:1015A000E086E08E0028F0D13AE000BF39B139780A
:1015B0000173206B01302063E08E0138E086E08EFD
:1015C00070B3681C0BD11BE0216B09780173206B91
:1015D00001302063E08E0138E086E08E00B32068A1
:1015E00081688907F0D4FFF7C9FAA0EB0800A84288
:1015F000F3D3032043E000BFFFF7C0FAE08E78B1D9
:10160000206881688907F7D5216B09780173206B01
:1016100001302063E08E0138E086E08E0028EFD1B3
:1016200040F20C00C2F20000006849F68171C1F27C
:101630005E61A0FB0101480D4FF47A7148430290AE
:101640006068B0F5827F23D1204680212A46434638
:1016500000F052FE28B1606D40F02000606520204F
:101660006065A06838B9002001902068C1680191C8
:10167000806801900198606D002818BF012000214A
:1016800084F8519084F8501003B0BDE8F08300BF97
:1016900002980028E5D002980138029020688068FE
:1016A0000006DED502980028DBD0029801380290AF
:1016B000206880680006D4D502980028D1D002980E
:1016C00001380290206880680006CAD50298002878
:1016D000C7D0029801380290206880680006D7D4ED
:1016E000BFE70000704700007047000010B590F899
:1016F0003C20012A4FF0020251D080F83D200268C0
:10170000D2F804E0D2F808C00C682EF0700323432E
:1017100041F2FF74C4F20004A24253600EDC40F2B6
:10172000FF73C4F200039A4216DCB2F1804F2BD053
:1017300040F20043C4F2000324E000BF40F2FF3354
:10174000C4F201039A4213DC41F60003C4F2000321
:101750009A4219D0002313E040F60003C4F20003BC
:101760009A4211D040F60043C4F200030AE000BFE1
:1017700044F20003C4F201039A4205D040F2004350
:10178000C4F201039A4204D149682CF08003194342
:1017900091600121002280F83D1080F83C20104625
:1017A00010BD0000002804BF0120704710B504469A
:1017B00090F83D0028B9002084F83C00204600F055
:1017C0001FF8022084F83D002068211D00F072FE01
:1017D000012084F8460084F83E0084F83F0084F835
:1017E000400084F8410084F8420084F8430084F803
:1017F000440084F8450084F83D00002010BD00003E
:1018000081B00068B0F1804F02D001B0704700BFD6
:101810000020009043F64000C4F20200016841F04D
:1018200001010160006800F001000090009801B023
:101830007047000090F83D1001291CBF012070473F
:10184000022180F83D10006841F2FF72C168C4F2C5
:101850000002904241F00101C1600DDC40F2FF71D5
:10186000C4F20001884215DCB0F1804F2AD040F26A
:101870000041C4F2000123E040F2FF31C4F2010153
:10188000884213DC41F60001C4F20001884219D0FD
:10189000002113E040F60001C4F20001884211D09B
:1018A00040F60041C4F200010AE000BF44F200012A
:1018B000C4F20101884205D040F20041C4F20101A6
:1018C000884206D1816801F00701062904BF002083
:1018D0007047016841F0010101600020704700007D
:1018E00080B590F83C20012A4FF0020200F0C2803F
:1018F00080F83D20D0F800C04FF67772DCF8083051
:1019000023EA0202CCF808200B684F2B28DC1F2B9F
:1019100044DD202B45D0302B43D0402B40F0AC8011
:10192000D1F804E0C968DCF82030DCF8202022F08F
:101930000102CCF82020DCF8182022F0F00242EA64
:10194000011123F00A0242EA0E02CCF81810CCF87A
:101950002020DCF8081041F0470121F0300180E040
:101960006F2B27DDB3F5005F48D0B3F5805F7AD0E9
:10197000702B40F08180D1E901E3C968DCF80820D0
:1019800043EA0E0322F47F4243EA01211143CCF8DB
:101990000810DCF8081041F0770162E00BB1102B61
:1019A0006AD1DCF8081021F07001194341F00701F9
:1019B00057E000BF502B35D0602B5DD1D1F804E04B
:1019C000C968DCF8203023F01003CCF82030DCF8B4
:1019D0001830DCF8202023F4704322F0A00243EA00
:1019E000013142EA0E12CCF81810CCF82020DCF8B5
:1019F000081041F0670121F0100132E0D1E901E364
:101A0000C968DCF8082043EA0E0322F47F4243EA67
:101A100001211143CCF80810DCF8081041F4804192
:101A20001FE000BFD1F804E0C968DCF82030DCF822
:101A3000202022F00102CCF82020DCF8182022F02F
:101A4000F00242EA011123F00A0242EA0E02CCF847
:101A50001810CCF82020DCF8081041F0570121F0D4
:101A60002001CCF808100022012180F83D1000214F
:101A700080F83C10104680BD0122F5E77047000059
:101A800010B5016804460869800744BFC8685FEA6A
:101A9000807039D40869400744BFC8685FEA407065
:101AA0003ED40869000744BFC8685FEA007045D4A7
:101AB0000869C00644BFC8685FEAC0604AD40869C4
:101AC000C0071CBFC8685FEAC07051D10869000632
:101AD00044BFC8685FEA006052D40869400644BF4A
:101AE000C8685FEA406053D40869800646BFC8688A
:101AF0005FEA806010BD6FF0200220460A61BDE8F9
:101B00001040FFF7F1BD00BF6FF002000861012037
:101B100020778869800743D02046FFF7AFFF45E074
:101B20006FF00400086102202077886910F4407F7C
:101B300040D02046FFF7A2FF42E000BF6FF0080050
:101B4000086104202077C86980073DD02046FFF750
:101B500095FF3FE06FF01000086108202077C8690A
:101B600010F4407F3AD02046FFF788FF3CE000BFEA
:101B70006FF001000861204600F03EF82168A5E7FB
:101B80006FF0800008612046FFF7ACFD2168A4E7F4
:101B90006FF040000861204600F038F82168A3E7A4
:101BA000204600F025F8204600F024F821680020A7
:101BB00020776FE7204600F01BF8204600F01AF867
:101BC0002168002020776CE7204600F011F82046BD
:101BD00000F010F821680020207769E7204600F027
:101BE00007F8204600F006F821680020207766E715
:101BF000704700007047000000680021C4F2010136
:101C0000884218BF7047FEF7BFBF00007047000052
:101C1000002804BF0120704710B5044690F83D002D
:101C200028B9002084F83C00204600F021F8242048
:101C300084F83D002068C16821F40051C16020464D
:101C400000F0D6FC2068016921F4904101614169EE
:101C500021F02A014161C16841F40051C1600020B6
:101C60002021206484F83D1084F83E1010BD00004F
:101C70002DE9F04385B0006844F60005C4F2000584
:101C8000A84203D005B0BDE8F08300BF002643F6AC
:101C900030000096C4F2020001696C4641F48021D4
:101CA000016101694FF0020801F48021009100995F
:101CB000009601684FF0030941F0020101600168DC
:101CC000072701F00201009100990096016841F098
:101CD000080101600068214600F0080000900098AB
:101CE0004FF40060009005F5DE30CDE90186CDF8B7
:101CF0000C900497FEF768FE4FF48070CDE9000861
:101D000005F5E2302146CDE902690497FEF75CFE55
:101D100005B0BDE8F0830000FEE7000070B586B0B6
:101D2000002543F6300005950095C4F202000168D5
:101D300040F2004441F0040101600168C4F2020471
:101D400001F004010091009900950168002241F022
:101D50000201016001684FF4407601F00201009138
:101D600000990095016841F008010160016801F0E7
:101D70000801009100990095016841F0010101609E
:101D800000684FF4407100F0010000900098204678
:101D9000FEF7EEFE0120CDE902050220049001A924
:101DA00020460196FEF710FE06B070BD80B540F2E9
:101DB000100043F60001C2F20000C4F200014FF42B
:101DC0008272002380E80E0000F114014FF4007CC1
:101DD0004FF0080E81E808500A21C0E90333C0E93A
:101DE0000833C0E90A31FFF7A7FA002808BF80BD11
:101DF000BDE88040FEF7CEBD80B586B040F2B000B1
:101E00000021C2F200004FF080424FF0FF330591F5
:101E1000CDE90311CDE90011C0E90021C0E90213A9
:101E200001618161FFF7BEFC002818BFFEF7B2FD1B
:101E30004FF48050029040F2B000C2F2000002A9BC
:101E4000FFF74EFD002818BFFEF7A4FD40F2B000DA
:101E5000C2F200006946FFF749FC002818BFFEF7F0
:101E600099FD06B080BD000080B540F2F80044F650
:101E70000001C2F20000C4F2000100234FF00C0C7C
:101E80004FF4E13280E80E00C0E90333C0E905C336
:101E9000C361FFF7BDFE002808BF80BDBDE88040DC
:101EA000FEF778BDFEE70000FEE700007047000087
:101EB000B0B540F20044C4F2020443F608052046DF
:101EC0004FF400710122C4F20005FEF751FE2046D6
:101ED0004FF480710022FEF74BFE40F21000C2F278
:101EE0000000CC210422FF23FFF7D2FA20464FF452
:101EF00080710122FEF73CFE20464FF480710022E3
:101F0000FEF736FE2868800709D4286880075CBF82
:101F100028685FEA807002D428688007F2D5022022
:101F200068602868C00709D12868C00704BF28680E
:101F30005FEAC07002D12868C007F2D068682868DC
:101F4000800709D4286880075CBF28685FEA807032
:101F500002D428688007F2D50F2068602868C0077F
:101F600009D12868C00704BF28685FEAC07002D1A1
:101F70002868C007F2D0686820464FF480710122BB
:101F8000FEF7F6FD43F27020C0F6000001F052F9B2
:101F900020464FF480710022FEF7EAFD2868800792
:101FA00009D4286880075CBF28685FEA807002D483
:101FB00028688007F2D5542068602868C00709D1D6
:101FC0002868C00704BF28685FEAC07002D128688B
:101FD000C007F2D068682868800709D4286880079D
:101FE0005CBF28685FEA807002D428688007F2D559
:101FF0008D2068602868C00709D12868C00704BF21
:1020000028685FEAC07002D12868C007F2D068680B
:1020100020464FF480710122FEF7AAFD20464FF4BE
:1020200080710022FEF7A4FD2868800709D4286883
:1020300080075CBF28685FEA807002D42868800748
:10204000F2D5562068602868C00709D12868C00703
:1020500004BF28685FEAC07002D12868C007F2D0C8
:1020600068682868800709D4286880075CBF2868EA
:102070005FEA807002D428688007F2D53E2068604D
:102080002868C00709D12868C00704BF28685FEA2C
:10209000C07002D12868C007F2D0686820464FF4AB
:1020A00080710122FEF764FD20464FF4807100220A
:1020B000FEF75EFD2868800709D4286880075CBFAA
:1020C00028685FEA807002D428688007F2D55A2019
:1020D00068602868C00709D12868C00704BF28685D
:1020E0005FEAC07002D12868C007F2D0686828682B
:1020F000800709D4286880075CBF28685FEA807081
:1021000002D428688007F2D5302068602868C007AC
:1021100009D12868C00704BF28685FEAC07002D1EF
:102120002868C007F2D0686820464FF48071012209
:10213000FEF71EFD20464FF480710022FEF718FDC9
:102140002868800709D4286880075CBF28685FEA90
:10215000807002D428688007F2D55820686028680B
:10216000C00709D12868C00704BF28685FEAC070AB
:1021700002D12868C007F2D068682868800709D4AF
:10218000286880075CBF28685FEA807002D42868EE
:102190008007F2D5002068602868C00709D1286848
:1021A000C00704BF28685FEAC07002D12868C00772
:1021B000F2D0686820464FF480710122FEF7D8FC07
:1021C00020464FF480710022FEF7D2FC2868800779
:1021D00009D4286880075CBF28685FEA807002D451
:1021E00028688007F2D52A2068602868C00709D1CE
:1021F0002868C00704BF28685FEAC07002D1286859
:10220000C007F2D068682868800709D4286880076A
:102210005CBF28685FEA807002D428688007F2D526
:10222000402068602868C00709D12868C00704BF3B
:1022300028685FEAC07002D12868C007F2D06868D9
:1022400020464FF480710122FEF792FC20464FF4A5
:1022500080710022FEF78CFC2868800709D428686A
:1022600080075CBF28685FEA807002D42868800716
:10227000F2D5222068602868C00709D12868C00705
:1022800004BF28685FEAC07002D12868C007F2D096
:1022900068682868800709D4286880075CBF2868B8
:1022A0005FEA807002D428688007F2D53D2068601C
:1022B0002868C00709D12868C00704BF28685FEAFA
:1022C000C07002D12868C007F2D0686820464FF479
:1022D00080710122FEF74CFCFDF7E6FF02A0BDE88D
:1022E000B04000F0A7BF00BF696E697420737563CA
:1022F00065737309000000002DE9F04182B01E46AD
:1023000090460D460446FEF739FC301A00EB0807EC
:10231000FEF734FC40F20C01C2F200010968C1F37F
:10232000CB317943019121688A682A40AA4227D19A
:10233000064618F101001FD0FEF720FC801BB842B2
:1023400022D2019801990028A1F10101019121688F
:10235000896808BF074601EA0500A842ECD00FE0F3
:1023600088682840A8420BD188682840A84207D135
:1023700088682840A84203D188682840A842EFD046
:10238000002002B0BDE8F081D4E900014268B1F557
:10239000827F22F0E00242600AD1A168B1F5004FCD
:1023A00002D0B1F5806F03D1016821F040010160D6
:1023B000A16AB1F5005F07D1016821F40051016005
:1023C000016841F400510160012084F851000020AF
:1023D00084F85000032002B0BDE8F081704700008F
:1023E00070470000B0B592B0002443F640000B9453
:1023F000CDE90944CDE907440594CDE90344CDE98D
:1024000001440094C4F202000168022541F08051A9
:102410000160006800F080500090009847F20000D2
:102420000094C4F20000016841F44041016000687A
:1024300000F44040009000980120099010200A907C
:1024400008200E90A820CDE90F050720119006A8BE
:102450000695CDE90C54FEF7B5FD28B1EFF31080D9
:1024600072B600BFFEE700BF0F20CDE901054FF4B3
:10247000A05004904FF48050059001A805210394CA
:10248000FEF772FC20B1EFF3108072B6FEE700BFDA
:1024900012B0B0BD4EF68850CEF20000016841F493
:1024A000700101607047000040F26800C2F2000055
:1024B000FFF7E6BA10B540F6FF3E0368C4F2000E1F
:1024C00040F2004C7045C4F2010C27DCB0F1804FA3
:1024D00031D040F20042C4F2000290422BD040F6CC
:1024E0000002C4F20002904225D041F6FF72C4F20D
:1024F0000002904229DC70453CDCB0F1804F5FD097
:1025000040F20042C4F20002904259D040F600026C
:10251000C4F20002904253D056E000BF40F60042A1
:10252000C4F20002904206D0604504D00022C4F2FA
:1025300001029042D9D14A6823F07003134341F657
:10254000FF72C4F200029042D5DD43F6FF72C4F27E
:102550000102904222DC42F20002C4F200029042E8
:102560002ED00022C4F20102904229D0604527D02B
:102570002AE000BF40F60042C4F2000290421FD0A1
:1025800041F60002C4F20002904219D041F6004226
:10259000C4F20002904213D016E000BF44F20002E1
:1025A000C4F2010290420BD044F60002C4F20102D0
:1025B000904205D044F20042C4F20102904203D19D
:1025C000CA6823F44073134323F080024B69D1F8A7
:1025D00000E08C681A430260C46240F48062C0F874
:1025E00028E0624504BF096901630121416110BD12
:1025F00010B504460068D4E902C22369016921F4D8
:10260000405111430161626943EA0C01E3691143DE
:10261000C268194349F20C639A431143C16041698E
:10262000A26921F4407141F20043114340F48062F9
:10263000C4F201039A42416102D1FEF779FC01E044
:10264000FEF762FCE16963681922B1F5004FA0FB57
:10265000020123D15A00DB0FFDF7C4FD48F21F51E0
:10266000C5F2EB11A0FB01235A094FF69C73C0F68B
:10267000FF7303F1805302FB0300322303EBC0001E
:10268000A0FB01014FF4F87000EA111000EB0210FA
:10269000C1F3421108442168886010BD9A009B0F65
:1026A000FDF7A0FD48F21F51C5F2EB11A0FB01237D
:1026B0005A094FF69C73C0F6FF7302FB03003223E6
:1026C00003EB0010A0FB0101F02000EA511000EB29
:1026D0000210C1F3431108442168886010BD000056
:1026E000FEE7000070B582B040F20045C4F202057A
:1026F000044643F6080628464FF480710022C4F2CF
:102700000006FEF735FA3068800709D43068800784
:102710005CBF30685FEA807002D430688007F2D511
:102720001A2070603068C00709D13068C00704BF44
:1027300030685FEAC07002D13068C007F2D07068BC
:102740003068800709D4306880075CBF30685FEA72
:10275000807002D430688007F2D500207060306845
:10276000C00709D13068C00704BF30685FEAC07095
:1027700002D13068C007F2D0706828464FF48071EB
:102780000122FEF7F5F942F29300208001AE0C2001
:102790002146022223460096FDF7EEFD054658B974
:1027A00020786178A278E3784840504021795840F9
:1027B000401A18BF0120450003A0294600F0BAFBCB
:1027C000284602B070BD00BF616E7469636F6C6CA7
:1027D00020737461747573202564090A0000000079
:1027E0002DE9F04F81B00E46834640F2004943F692
:1027F0000804052004219046C4F20209C4F2000432
:1028000000F082F90A20802100F0F2FA002E51D067
:1028100000254FF0120A09E0606848464FF48071C5
:102820000122FEF7A5F90135B54243D01BF805702A
:1028300048464FF480710022FEF79AF9206880071D
:102840000AD4206880075CBF20685FEA807003D4E8
:1028500020688007F2D500BFC4F804A02068C00734
:102860000AD12068C00704BF20685FEAC07003D1A6
:102870002068C007F2D000BF60682068800709D4D4
:10288000206880075CBF20685FEA807002D42068FF
:102890008007F2D567602068C007BDD12068C007F7
:1028A00004BF20685FEAC070B6D12068C007F2D0CC
:1028B000B2E700BF48464FF480710022FEF758F996
:1028C0002068800709D4206880075CBF20685FEA21
:1028D000807002D420688007F2D5022060602068F2
:1028E000C00709D12068C00704BF20685FEAC07034
:1028F00002D12068C007F2D060682068800709D440
:10290000206880075CBF20685FEA807002D420687E
:102910008007F2D5032060602068C00709D12068D5
:10292000C00704BF20685FEAC07002D12068C007FA
:10293000F2D0606848464FF480710122FEF718F922
:10294000FF264FF0000A8A2748464FF48071002284
:10295000FEF70EF9206880070AD4206880075CBF64
:1029600020685FEA807003D420688007F2D500BF3A
:1029700067602068C00709D12068C00704BF2068CD
:102980005FEAC07002D12068C007F2D0606820689A
:10299000800709D4206880075CBF20685FEA8070E8
:1029A00002D420688007F2D5C4F804A02068C007CC
:1029B0000AD12068C00704BF20685FEAC07003D155
:1029C0002068C007F2D000BF656848464FF48071A8
:1029D0000122FEF7CDF8013E300602D015F00400CA
:1029E000B2D048464FF480710022FEF7C1F820684B
:1029F000800709D4206880075CBF20685FEA807088
:102A000002D420688007F2D5C42060602068C00727
:102A100009D12068C00704BF20685FEAC07002D1F6
:102A20002068C007F2D060682068800709D4206859
:102A300080075CBF20685FEA807002D4206880074E
:102A4000F2D5002060602068C00709D12068C00767
:102A500004BF20685FEAC07002D12068C007F2D0CE
:102A6000656848464FF480710122FEF781F84846B8
:102A70004FF48071002288F80050FEF779F8206842
:102A8000800709D4206880075CBF20685FEA8070F7
:102A900002D420688007F2D5C22060602068C00799
:102AA00009D12068C00704BF20685FEAC07002D166
:102AB0002068C007F2D060682068800709D42068C9
:102AC00080075CBF20685FEA807002D420688007BE
:102AD000F2D5002060602068C00709D12068C007D7
:102AE00004BF20685FEAC07002D12068C007F2D03E
:102AF000646848464FF480710122FEF739F888F87F
:102B0000014001B0BDE8F08F2DE9F04140F20048EE
:102B1000C4F202080D46064643F6080740464FF445
:102B200080710022C4F20007FEF722F8386880079F
:102B300009D4386880075CBF38685FEA807002D4C7
:102B400038688007F2D5802040EA46007400C0B2A1
:102B500078603868C00709D13868C00704BF386892
:102B60005FEAC07002D13868C007F2D07868386870
:102B7000800709D4386880075CBF38685FEA8070D6
:102B800002D438688007F2D5002078603868C00722
:102B900009D13868C00704BF38685FEAC07002D145
:102BA0003868C007F2D07E6840464FF48071012239
:102BB000FDF7DEFF40464FF480710022ED43FDF744
:102BC000D7FF3868800709D4386880075CBF386849
:102BD0005FEA807002D438688007F2D504F07E0086
:102BE00078603868C00709D13868C00704BF386802
:102BF0005FEAC07002D13868C007F2D078683868E0
:102C0000800709D4386880075CBF38685FEA807045
:102C100002D438688007F2D506EA0500C0B27860B1
:102C20003868C00709D13868C00704BF38685FEA50
:102C3000C07002D13868C007F2D0786840464FF4BF
:102C400080710122BDE8F041FDF792BF44F600011A
:102C5000C4F200010A68520609D40A6852065CBF31
:102C60000A685FEA426202D40A685206F2D5C2B22A
:102C70004A60704770B584B040F20045C4F2020566
:102C8000044643F6080628464FF480710022C4F239
:102C90000006FDF76DFF3068800709D430688007B3
:102CA0005CBF30685FEA807002D430688007F2D57C
:102CB0001A2070603068C00709D13068C00704BFAF
:102CC00030685FEAC07002D13068C007F2D0706827
:102CD0003068800709D4306880075CBF30685FEADD
:102CE000807002D430688007F2D5072070603068A9
:102CF000C00709D13068C00704BF30685FEAC07000
:102D000002D13068C007F2D0706828464FF4807155
:102D10000122FDF72DFF2620207001AE0C20214658
:102D2000012223460096FDF727FBD8B90198102809
:102D300018D12046FFF7D6FC0446502002ADADF86E
:102D40000800AA1C28460221FFF74AFD03AE0C200A
:102D5000294604222B460096FDF70EFB204604B0C0
:102D600070BD00BF022004B070BD000084B0FDF74C
:102D700019FFFFF737FBFEF7D1FFFFF717F8FFF753
:102D800073F8FFF739F811A000F054FAFFF790F844
:102D90000DF10B0411A603E04FF47A70FDF700FE6D
:102DA0002046FFF767FF0028F6D19DF80E009DF83A
:102DB0000B109DF80C209DF80D309DF80F500090E1
:102DC0003046019500F0B6F8E6E700BF73797374FA
:102DD000656D2073746172740900000025782025E8
:102DE00078202578202578202578090A0000000021
:102DF0002DE9F04140F20044C4F202048846064640
:102E000043F6080720464FF480710022C4F2000701
:102E1000FDF7AEFE3868800709D4386880075CBFCC
:102E200038685FEA807002D438688007F2D5802065
:102E300040EA46007500C0B278603868C00709D122
:102E40003868C00704BF38685FEAC07002D13868CC
:102E5000C007F2D078683868800709D438688007DE
:102E60005CBF38685FEA807002D438688007F2D5AA
:102E7000002078603868C00709D13868C00704BFEF
:102E800038685FEAC07002D13868C007F2D07E6847
:102E900020464FF480710122FDF76AFE20464FF470
:102EA00080710022FDF764FE3868800709D4386815
:102EB00080075CBF38685FEA807002D4386880079A
:102EC000F2D505F07E0078603868C00709D138680F
:102ED000C00704BF38685FEAC07002D13868C00715
:102EE000F2D078683868800709D4386880075CBFFA
:102EF00038685FEA807002D438688007F2D546EA05
:102F00000800C0B278603868C00709D13868C007C7
:102F100004BF38685FEAC07002D13868C007F2D0D9
:102F2000786820464FF480710122BDE8F041FDF73A
:102F30001FBE00000FB4054B10B503A9044A029848
:102F400000F018F810BC5DF814FB00004D2C0008D0
:102F50000000002002E008C8121F08C1002AFAD1B0
:102F600070477047002001E001C1121F002AFBD109
:102F7000704700002DE9FF4F8DB09B460F46044679
:102F8000002606E025280BD05A460F999047641C6E
:102F9000761C20780028F5D111B03046BDE8F08FBE
:102FA0000025A8460122984900E0054314F8013F96
:102FB000203B02FA03F00842F7D120782E2817D1DF
:102FC00014F8010F45F004052A280ED06FF02F02E7
:102FD0002078A0F1300109290AD808EB880102EB1A
:102FE000410100EB0108641CF2E757F8048B641CF4
:102FF00020786C280DD004DC4C2812D06A2811D11E
:1030000004E074280DD07A280CD10AE045F40015AC
:1030100007E0617845F48015814202D1641C05F512
:103020008015641C2278692A45D008DC002AB3D0B8
:10303000582A69D0632A10D0642A08D13BE0702A4C
:1030400067D0732A13D0752A5CD0782A5CD01046DA
:103050005A460F999047761CD3E017F8040B8DF869
:10306000000000208DF80100E946012003E057F838
:10307000049B4FF0FF3069074FF0000501D40AE0D0
:103080006D1C45450DDA8542FADB19F8051000295B
:10309000F6D106E06D1C8542FCDB19F8051000290D
:1030A000F8D12E4404E019F8010B5A460F999047C5
:1030B0006D1EF8D2A5E00A200021CDE90801C5F374
:1030C000025002280DD001CFC117031E71F1000379
:1030D0000DDA4FF0000CD0EB0C006CEB01012D234E
:1030E00008E0FF1D27F00707F7E80201EDE72B05D1
:1030F00004D52B238DF8283001233BE0EB0739D092
:103100002023F7E70A2000E010200021CDE9080184
:1031100007E01020002145F00405CDE908014FF03B
:103120000808C5F3025002280FD001CF00214FF04C
:10313000000A2B071FD5702A0DD0DDE908C38CF0DB
:10314000100C5CEA030C0CD015E0FF1D27F00707FC
:10315000F7E80201EBE740228DF828204FF0010A42
:103160000BE050EA010306D030238DF828308DF8AB
:10317000292002239A46582A04D024A20DF12009BE
:103180000B9209E026A2F9E7DDE90823FDF72AF80A
:103190000B9B9B5C09F8013D50EA0102F4D1ADEBB9
:1031A000090020300890680701D44FF00108089901
:1031B000884502DDA8EB010000E0002080460025E4
:1031C00006E00AA85A46405D0F9990476D1C761C90
:1031D0005545F6DB04E030205A460F999047761C9F
:1031E000B8F10001A8F10108F5DC05E019F8010BC0
:1031F0005A460F999047761C0899481E0890002956
:10320000F4DC641CC5E600000928010030313233CB
:103210003435363738396162636465660000000012
:1032200030313233343536373839414243444546FC
:103230000000000010B5044601E0FFF707FD14F898
:10324000010B04490028F8D1BDE810400A20FFF71F
:10325000FDBC000000000020000000000000000095
:10326000010203040607080900000000010203042C
:103270007265737374207263353232090000000086
:10328000A03200080000002010000000542F0008A9
:10329000B03200081000002030050000642F000844
:1032A0000000000001000000100000000024F400F5
:04000005080001AD41
:00000001FF
